:100000000C948F020C94B7020C94B7020C94B702B4
:100010000C94B7020C94B7020C94B7020C94B7027C
:100020000C94EA1C0C94B7020C94B7020C94B7021F
:100030000C94B7020C94B7020C94B7020C94B7025C
:100040000C94481C0C94B7020C94B81C0C94921C91
:100050000C94B7020C94B7020C94B7020C94B7023C
:100060000C94B7020C94B702036EDB363D9A999953
:10007000993DABAAAA2A3E000000803F084AD73B20
:100080003BCE016E84BCBFFDC12F3D6C74319ABD67
:1000900056833DDA3D00C77F11BED9E4BB4C3E918B
:1000A0006BAAAABE000000803F072C7AA5BA6CC5D7
:1000B00090DA3B9365FC8BBC53F810FD3C56928361
:1000C0004DBD879D3AB63DCBC9BF5BBE73DA0FC944
:1000D0003F05A84CCDB2D44EB93836A9020C50B960
:1000E000918688083CA6AAAA2ABE000000803F0785
:1000F000634236B79BD8A71A39685618AEBAAB55C3
:100100008C1D3CB7CC5763BD6DEDFD753EF6177287
:1001100031BF000000803F08000000BE9224491259
:100120003EABAAAA2ABECDCCCC4C3E00000080BE7D
:10013000ABAAAAAA3E00000000BF000000803F005A
:1001400000000000084178D3BB4387D1133D190E4E
:100150003CC3BD4282AD2B3E68EC8276BED98FE1B6
:10016000A93E4C80EFFFBE01C4FF7F3F00000000AE
:1001700000004E414E494E495459494E46CDCCCCD3
:100180003D0AD7233C17B7D13877CC2B329595E66B
:10019000241FB14F0A000020410000C84200401C4B
:1001A0004620BCBE4CCA1B0E5AAEC59D7446415378
:1001B00054005768796E746572004D6167695175B6
:1001C000657374004C65676F00426F7365576176A5
:1001D000650042616E67264F6C756673656E0053ED
:1001E0006F6E790053686172700053616D73756E44
:1001F0006734380053616D73756E674C4700536107
:100200006D73756E670052433600524335004B6183
:100210007365696B796F5F4D697473756269736833
:1002200069004B617365696B796F5F4A5643004B98
:10023000617365696B796F5F5368617270004B61C0
:100240007365696B796F5F44656E6F6E004B6173A8
:1002500065696B796F0050616E61736F6E696300E1
:100260004F6E6B796F004E454332004E4543004C54
:100270004732004C47004A56430044656E6F6E009B
:100280004170706C650050756C736544697374617E
:100290006E63650050756C736557696474680055CA
:1002A0004E4B4E4F574E00496620796F752067655B
:1002B0007420756E6578706563746564207265730B
:1002C000756C74732C2074727920746F20696E635E
:1002D000726561736520746865205245434F5244CE
:1002E0005F4741505F4D4943524F5320696E20494B
:1002F0005272656D6F74652E682E004275742069A8
:10030000742063616E206265204F4B20666F7220FF
:10031000736F6D652079657420756E737570706F7D
:10032000727465642070726F746F636F6C732C20CD
:10033000616E6420657370656369616C6C792066B9
:100340006F7220726570656174732E002075732062
:100350006B6E6F776E20666F7220696D706C656D65
:10036000656E7465642070726F746F636F6C732058
:100370006C696B65204E45432C20536F6E792C20A1
:10038000524325206574632E2E002075732062650C
:10039000747765656E2074776F2064657465637427
:1003A0006564207472616E736D697373696F6E201A
:1003B000697320736D616C6C6572207468616E2066
:1003C000746865206D696E696D616C20676170206D
:1003D0006F6620005370616365206F662000204CBB
:1003E000534220666972737400204D53422066693F
:1003F00072737400206269747300205261772D4417
:100400006174613D307800757300206761703D0054
:10041000526570656174004175746F2D0020546FD2
:1004200067676C653D3100205061726974792066A0
:1004300061696C002045787472613D30780020431A
:100440006F6D6D616E643D3078002041646472654B
:1004500073733D30780020626974732028696E637D
:100460006C2E2067617020616E64207374617274F9
:1004700029207265636569766564009F029402862F
:100480000280027A02760273026F026B02660260D9
:100490000256024D023E022F0222020E020A0206FC
:1004A00002FE01F401EA01E401DF01D201C901C445
:1004B00001BA01B201AD0150726F746F636F6C3D90
:1004C000004F766572666C6F7700000000002400B4
:1004D00027002A0000000000250028002B00000053
:1004E00000080002010000030407000000000000F3
:1004F00000000404040404040404020202020202D0
:1005000003030303030301020408102040800102D7
:1005100004081020010204081020A01E6B2E1124D4
:100520001FBECFEFD8E0DEBFCDBF26E0A2E5B3E02F
:1005300001C01D92A43AB207E1F713E0A0E0B1E0D8
:10054000E8E4F6E702C005900D92A235B107D9F7AD
:1005500012E0CEE8D2E004C02197FE010E9464368A
:10056000CD38D107C9F70E94B6200C94173B0C94E4
:100570000000FC0166817781808591850895FC01EA
:100580006281738184819581089590E0FC01E2523B
:10059000FB4F2491FC01EA5FFA4F3491FC01EE50CD
:1005A000FB4FE491EE23C9F0222339F0233001F10F
:1005B000A8F4213019F1223029F1F0E0EE0FFF1FED
:1005C000EC52FB4FA591B4918FB7F894EC91611167
:1005D00026C030953E233C938FBF08952730A9F065
:1005E0002830C9F0243049F7809180008F7D03C006
:1005F000809180008F7780938000DFCF84B58F77E4
:1006000084BDDBCF84B58F7DFBCF8091B0008F7729
:100610008093B000D2CF8091B0008F7DF9CF3E2B78
:10062000DACFCF93DF9390E0FC01EA5FFA4F249199
:100630008E509B4FFC0184918823D1F090E0880F6D
:10064000991FFC01E653FB4FA591B491FC01EC52BC
:10065000FB4FC591D49161110EC09FB7F8948C9156
:10066000E22FE0958E238C932881E223E8839FBFBD
:10067000DF91CF9108958FB7F894EC91E22BEC9332
:100680008FBFF6CF3FB7F89480916D0390916E03C2
:10069000A0916F03B091700326B5A89B05C02F3FB2
:1006A00019F00196A11DB11D3FBFBA2FA92F982F98
:1006B0008827BC01CD01620F711D811D911D42E093
:1006C000660F771F881F991F4A95D1F708958F925B
:1006D0009F92AF92BF92CF92DF92EF92FF924B0127
:1006E0005C010E9442036B017C010E9442036C1971
:1006F0007D098E099F09683E734081059105A8F325
:1007000021E0821A9108A108B10888EEC80E83E0A2
:10071000D81EE11CF11C81149104A104B10429F735
:10072000FF90EF90DF90CF90BF90AF909F908F9011
:1007300008950895DC01ED91FC910190F081E02D88
:100740000994DB0114964D915C9115976D917C9104
:10075000DC01ED91FC910280F381E02D0994AF92D0
:10076000BF92CF92DF92EF92FF920F931F93CF939E
:10077000DF936C017B018B01040F151FEB015E0100
:10078000AE18BF08C017D10759F06991D601ED9195
:10079000FC910190F081E02DC6010995892B79F734
:1007A000C501DF91CF911F910F91FF90EF90DF90E6
:1007B000CF90BF90AF900895FC01538D448D252FAD
:1007C00030E0842F90E0821B930B541710F0CF96EB
:1007D000089501970895FC01918D828D981761F01D
:1007E000A28DAE0FBF2FB11D5D968C91928D9F5F34
:1007F0009F73928F90E008958FEF9FEF0895FC0113
:10080000918D828D981731F0828DE80FF11D858DC5
:1008100090E008958FEF9FEF0895FC01918D228D58
:10082000892F90E0805C9F4F821B91098F739927DD
:10083000089587E793E00E940D0421E0892B09F4D5
:1008400020E0822F089580E090E0892B29F00E941B
:10085000190481110C9400000895FC01A48DA80FC7
:10086000B92FB11DA35ABF4F2C91848D90E00196F2
:100870008F739927848FA689B7892C93A089B18912
:100880008C91837080648C93938D848D981306C0B3
:100890000288F389E02D80818F7D80830895EF9217
:1008A000FF920F931F93CF93DF93EC0181E0888F2A
:1008B0009B8D8C8D98131AC0E889F989808185FFFA
:1008C00015C09FB7F894EE89FF896083E889F9899C
:1008D00080818370806480839FBF81E090E0DF919E
:1008E000CF911F910F91FF90EF900895F62E0B8DF1
:1008F00010E00F5F1F4F0F731127E02E8C8D8E11AC
:100900000CC00FB607FCFACFE889F989808185FF12
:10091000F5CFCE010E942D04F1CFEB8DEC0FFD2F12
:10092000F11DE35AFF4FF0829FB7F8940B8FEA89CD
:10093000FB8980818062CFCF0F931F93CF93DF938A
:100940008C01D0E0C0E0F801EC0FFD1F649166233C
:1009500041F087E793E00E944F04892B11F0219624
:10096000F2CFCE01DF91CF911F910F910895CF93D8
:10097000DF93EC01888D8823B9F0AA89BB89E889C7
:10098000F9898C9185FD03C0808186FD0DC00FB66D
:1009900007FCF7CF8C9185FFF2CF808185FFEDCFEB
:1009A000CE010E942D04E9CFDF91CF9108950F93DE
:1009B0001F93E091C604F091C704DC0112972681D1
:1009C00037812250310960E070E0CB01A217B307F4
:1009D00060F4228130E00E94F4310089118922897B
:1009E0003389600F711F821F931F1F910F9108950C
:1009F000CF93DF93EC01A091C604B091C704198294
:100A000018828C819D8181309105E9F016962D9197
:100A10003C91179782179307B0F49F838E830097BA
:100A200059F00E94D704688779878A879B8790E06E
:100A300080E0DF91CF9108951C966D917D918D910D
:100A40009C911F97F0CF81E090E0F3CF8EBD0DB465
:100A500007FEFDCF08958FEF0E9426058EB50895FD
:100A6000FF920F931F93CF93DF93C82FD42F152F8F
:100A7000062FF72E80915203811139C083E58CBD7A
:100A80001DBCC7FF09C040E050E0BA0187E70E94E3
:100A90003005823030F5CF772A9A0E942B052A98AC
:100AA0000E942B058C2F0E9426058F2D0E94260563
:100AB000802F0E942605812F0E9426058D2F0E94DF
:100AC000260585E9C03421F087E8C83409F081E0C3
:100AD0000E942605CAE00E942B0587FF02C0C15074
:100AE000D1F7DF91CF911F910F91FF90089580E58D
:100AF0008CBD81E08DBDC5CFCF92DF92EF92FF928A
:100B00000F931F93CF93DF937C0169018091520370
:100B100083FD07C089E0440F551F661F771F8A9524
:100B2000D1F781E50E943005811108C0C0E4DCE9FD
:100B30000E942B058F3F29F42197D1F7C1E0D0E027
:100B400022C08E3FD9F7C2E0D2E0C01BD10BCC1936
:100B5000DD0981E0C81AD10818F00E942B05F9CFF1
:100B6000E114F104E9F00E0D1F1D0E942B05F701A1
:100B700081937F010E171F07C1F70E942B05219754
:100B8000E1F7D0E0C0E02A9A0E942B05CE01DF9168
:100B9000CF911F910F91FF90EF90DF90CF9008952C
:100BA0000E942B0501501109D9F7E7CF4F925F92B0
:100BB0006F927F928F929F92AF92BF92CF92DF926D
:100BC000EF92FF920F931F93CF93DF93CDB7DEB7D2
:100BD000A4970FB6F894DEBF0FBECDBF40E050E043
:100BE000BA01CE0101960E94B01DC12CD12C760114
:100BF0008130B1F500E110E02EEB31E040E050E053
:100C0000BA01CE0101960E947C05892BC9F081E0D2
:100C100090E0A4960FB6F894DEBF0FBECDBFDF9173
:100C2000CF911F910F91FF90EF90DF90CF90BF90E9
:100C3000AF909F908F907F906F905F904F900895AE
:100C40008D81811103C086E090E0E3CFC984DA840E
:100C5000EB84FC84B701A601CE0101960E94B01D71
:100C60008330A9F28111EFCF04E210E02DE030E0F3
:100C7000B701A601CE0101960E947C05892B39F6A9
:100C80002A853B8550E040E021153105410551059D
:100C900021F4288D398D4A8D5B8DAC81B0E00E94A6
:100CA000B2314B015C014A815B8170E060E0C40EAF
:100CB000D51EE61EF71EC092D004D092D104E09259
:100CC000D204F092D30429812093CA04ED81FE81DD
:100CD000F093CD04E093CC048F819885B0E0A0E040
:100CE0000097A105B10521F48C899D89AE89BF8942
:100CF00034E0F695E7953A95E1F72F01712C612CD8
:100D0000841B950BA60BB70BBC01CD0168197909A3
:100D10008A099B09641975098609970930E050E032
:100D200040E00E949031DA01C9010296A11DB11D77
:100D30009093CF048093CE04265F3F404109510930
:100D40002F3F3F4E4105510560F1873F9F40A10570
:100D5000B10508F078CF81E08093C804C80CD91C95
:100D6000EA1CFB1CC092D404D092D504E092D604B5
:100D7000F092D704C40CD51CE61CF71CC092D80412
:100D8000D092D904E092DA04F092DB041092C90404
:100D900088EC94E09093C7048093C60490E080E0D0
:100DA00038CF82E0D9CF8F929F92AF92BF92CF92ED
:100DB000DF92EF92FF920F931F93CF93DF9300D0B8
:100DC00000D0CDB7DEB78230910518F481E090E015
:100DD00071C0C090C604D090C704F6012681378147
:100DE0008217930798F77C0180818130D9F0823097
:100DF00069F797013327220F331FEF2CFF2440851B
:100E00005185628573854E0D5F1D611D711D02E068
:100E100010E0CE0101960E947C05892BB9F68981EC
:100E20009A8148C04701969487948E0C9F1C940128
:100E30003170892C99248694B12CA12C4085518540
:100E400062857385480D591D6A1D7B1D02E010E007
:100E5000CE0101962F3FF1E03F07E1F401E010E001
:100E60002FEF31E0CE0101960E947C05892B09F01D
:100E7000ADCFF60140855185628573854F5F5F4F29
:100E80006F4F7F4F480D591D6A1D7B1D30E020E0DC
:100E9000CE0102960E947C05892B09F097CF8981AB
:100EA0009A81E0FC02C09F7005C024E0969587956A
:100EB0002A95E1F70F900F900F900F90DF91CF914F
:100EC0001F910F91FF90EF90DF90CF90BF90AF9068
:100ED0009F908F900895CF92DF92EF92FF92CF93E1
:100EE000DF93EC01688D798D8A8D9B8D9B01AC0120
:100EF0000E94C2306B017C0168A179A18AA19BA1EB
:100F00009B01AC010E9415329B01AC01C701B601E7
:100F10000E94D0320E9442336CAB7DAB8EAB9FAB54
:100F2000E881F9810084F185E02DCE01DF91CF9138
:100F3000FF90EF90DF90CF900994CF93DF93FC0167
:100F40002781222359F1EC0161E080850E94110381
:100F500061E089850E9411038F81843011F088300F
:100F6000B1F461E08A850E94110361E08B850E94E3
:100F700011038FA58F3F91F061E00E9411036EA5D0
:100F800081E068278FA5DF91CF910C94C502833053
:100F900011F0863071F761E08A85E9CFDF91CF915A
:100FA0000895CF93DF93FC0127812223A9F0EC0160
:100FB0000190F081E02D0284F385E02D60E0099539
:100FC0008FA58F3F49F061E00E9411036EA58FA5A8
:100FD000DF91CF910C94C502DF91CF910895DC0190
:100FE000ED91FC9122853385477055276627772739
:100FF0004150510961097109473051056105710579
:1010000060F4FA01EA5FF74F0C9464361008120896
:101010001408160818081A081C0861E0F901099458
:1010200065E0FCCF64E0FACF66E0F8CF62E0F6CF8F
:101030006AE0F4CF68E0F2CF69E0F0CFCF93DF93BE
:10104000EC01CB01BA0126E030E040E050E00E9424
:101050004536623071058105910589F16CF46115A1
:10106000710581059105D1F061307105810591050A
:10107000F9F0DF91CF9108956430710581059105F4
:1010800061F124F1653071058105910591F7E881E1
:10109000F9810284F385E02D66E006C0E881F981DC
:1010A0000284F385E02D64E0CE01DF91CF910994B5
:1010B000E881F9810284F385E02D65E0F5CFE881D0
:1010C000F9810284F385E02D61E0EECFE881F981BA
:1010D0000284F385E02D63E0E7CFE881F9810284A3
:1010E000F385E02D62E0E0CFDC01ED91FC9102841C
:1010F000F385E02D43705527662777274230510549
:101100006105710571F0433051056105710559F0B4
:10111000413051056105710511F065E0099466E003
:10112000FDCF6AE0FBCF69E0F9CFCF93DF93EC010D
:10113000CB01BA0123E030E040E050E00E944536A8
:10114000613071058105910599F062307105810565
:101150009105A9F0672B682B692BC1F4E881F9810F
:101160000284F385E02D64E0CE01DF91CF910994F4
:10117000E881F9810284F385E02D61E0F5CFE88113
:10118000F9810284F385E02D62E0EECFDF91CF910B
:101190000895DC01ED91FC910284F385E02D43700C
:1011A000552766277727423051056105710571F093
:1011B000433051056105710559F041305105610514
:1011C000710511F062E0099463E0FDCF61E0FBCFAF
:1011D00060E0F9CFCF93DF93EC01E881F9810284DD
:1011E000F385E02D8A8160E0811162E0CE010995EE
:1011F000E881F9810284F385E02D8A8161E0811123
:1012000063E0CE0109958CA59DA58230910538F04B
:10121000880F991F880F991F05970197F1F7E881AB
:10122000F9810284F385E02D8A8160E0811162E01A
:10123000CE01DF91CF910994CF93DF93EC0120E0B1
:1012400030E0A901688D798D8A8D9B8D0E946A346A
:1012500018162CF4E8A9F9A9DF91CF910994EAA90D
:10126000FBA9FACFCF92DF92EF92FF920F931F93D9
:10127000CF93DF93DC011796CC91C43039F0C8309E
:1012800059F1C33019F0C63049F1C2E08C01085F52
:101290001F4FF12CE12CC62ED12CD1E0F801648136
:1012A000C6010E2C02C0959587950A94E2F780FD41
:1012B0006D270F5F1F4F80810E94C502BFEFEB1AA1
:1012C000FB0AEC1658F3DF91CF911F910F91FF901D
:1012D000EF90DF90CF900895C4E0D8CFC3E0D6CF91
:1012E000DC011796EC911797E93008F038C0F0E070
:1012F000E458F64F0C94643685098B0991099709D7
:101300009D09AF09A309AF09A909ED91FC910684D4
:10131000F785E02D0994ED91FC910088F189E02D8D
:10132000F9CFED91FC910288F389E02DF3CFED9197
:10133000FC910488F589E02DEDCFED91FC910688B4
:10134000F789E02DE7CFED91FC91008CF18DE02D38
:10135000E1CFED91FC91028CF38DE02DDBCF089570
:10136000CF92DF92EF92FF92CF93DF93EC018B81CC
:101370009C81AD81BE81892B8A2B8B2BD9F10E9458
:1013800042036B017C0188A599A5AAA5BBA5B7015D
:10139000A601481B590B6A0B7B0B8B819C81AD818D
:1013A000BE81481759076A077B0720F18889998908
:1013B000AA89BB892A812223F1F10196A11DB11DC1
:1013C000888B998BAA8BBB8B488959896A897B89C1
:1013D000E881F9810484F585E02DCE010995C8A640
:1013E000D9A6EAA6FBA6E881F9810084F185E02D63
:1013F000CE01099520E030E0A901688D798D8A8DB4
:101400009B8D0E945C3081111AC081E0CC88DD8800
:10141000EE88FF88488959896A897B89C416D50670
:10142000E606F70609F480E0DF91CF91FF90EF9098
:10143000DF90CF9008950197A109B109C1CF81E054
:10144000F3CF4F925F926F927F928F929F92AF9263
:10145000BF92CF92DF92EF92FF920F931F93CF93A1
:10146000DF93EC01CC88DD88EE88FF888889998934
:10147000AA89BB89C81AD90AEA0AFB0A688D798D3C
:101480008A8D9B8D9B01AC010E94C2304B015C0197
:1014900068A179A18AA19BA19B01AC010E94153290
:1014A0009B01AC01C501B4010E94D0320E944233BD
:1014B000C114D104E104F10409F0B6C06230710531
:1014C000810591050CF0D0C01B821C821D821E82FA
:1014D000188E198E1A8E1B8E1CAA1DAA1EAA1FAA50
:1014E000C12CD12C7601C701B601DF91CF911F919C
:1014F0000F91FF90EF90DF90CF90BF90AF909F90B3
:101500008F907F906F905F904F9008951016110606
:1015100012061306B4F46C157D058E059F051CF4A8
:101520002A812111A1C09B01AC0188279927DC01E8
:10153000821B930BA40BB50B8CAB9DABAEABBFABBF
:1015400093C0011511052105310509F48DC06C15F5
:101550007D058E059F050CF087C08A81882309F4DC
:1015600083C030952095109501951F4F2F4F3F4F09
:101570000CAB1DAB2EAB3FAB77C0011511052105A0
:10158000310509F471C08824992454018C189D08F0
:10159000AE08BF08681579058A059B050CF064C084
:1015A0008A81811161C0DDCFCCACDDACEEACFFAC8B
:1015B000A7019601C701B6010E9415322B013C011B
:1015C000C501B4010E94633020E030E040E850E4FF
:1015D0000E94C23020E030E040E85FE30E94153214
:1015E0009B01AC01C301B2010E94D0329B01AC014E
:1015F000C701B6010E9414323B016C01FE01E05CA0
:10160000FF4FE080F180028113819701A8010E94C1
:101610006A34181614F473018601C701D8018CAF1F
:101620009DAFAEAFBFAF3AC00CA91DA92EA93FA96F
:101630001C141D041E041F040CF468CF10161106A0
:10164000120613060CF099CF0027112798010C19E8
:101650001D092E093F0960177107820793070CF0D7
:1016600062CF2A8121115FCF8CA89DA8AEA8BFA808
:1016700081149104A104B10409F096CF88AD99AD0D
:10168000AAADBBAD8CAF9DAFAEAFBFAF81E01C14B8
:101690001D041E041F040CF080E08A833FEF831AB0
:1016A000930AA30AB30A8CAA9DAAAEAABFAA8CACBD
:1016B0009DACAEACBFACC501B4010E9449336B0117
:1016C0007C01CB82DC82ED82FE82A501940160E088
:1016D00074E284E799E40E94D032688F798F8A8F10
:1016E0009B8F2A812111FFCE9058688F798F8A8F26
:1016F0009B8FF9CE0F931F93DC0154960D911D9192
:101700002D913C915797041715072607370771F05D
:10171000FC01448B558B668B778B0190F081E02D1B
:101720000084F185E02D1F910F9109941F910F9175
:101730000895CF92DF92EF92FF92CF93DF936901EA
:101740007A0120E03EEF41EF56E40E94C23020E0F3
:1017500030E044EB53E40E94D0320E944233AB01AC
:10176000770F660B770BC1E7D3E08A819B810E94DC
:101770007A0B20E03EEF41EF56E4C701B6010E942C
:10178000C23020E030E044EB53E40E94D0320E94AB
:101790004233AB01770F660B770B88819981DF911C
:1017A000CF91FF90EF90DF90CF900C947A0B08953B
:1017B000FC0146835783608771870895FC0142834B
:1017C00053836483758308958091C10085FDFCCFA8
:1017D0008091C00085FFF8CF6093C60081E090E063
:1017E000089590E080E008950F931F932FB7F89429
:1017F0006091690370916A0380916B0390916C030F
:101800002FBF009153031091540320915503309141
:101810005603600F711F821F931F28EE33E040E0D4
:1018200050E00E949031CA01B9012CE330E040E061
:1018300050E00E949031CB011F910F9108950F93BA
:101840001F932FB7F8946091690370916A03809198
:101850006B0390916C032FBF0091530310915403BD
:101860002091550330915603600F711F821F931F03
:1018700020E63AEE40E050E00E949031CA01B90102
:101880002CE330E040E050E00E949031CB011F910A
:101890000F9108950F931F932FB7F89460916903E8
:1018A00070916A0380916B0390916C032FBF00913C
:1018B0005303109154032091550330915603600F48
:1018C000711F821F931F20E83EEE46E350E00E9406
:1018D0009031CA01B90128E130E040E050E00E94B7
:1018E0009031CB011F910F910895CF93DF93EC01BD
:1018F00060E08E810E94C50261E08E810E94C50277
:1019000060E08E810E94C5028BE891E00197F1F7BB
:10191000DF91CF910895CF92DF92EF92FF920F93D4
:101920001F93CF93DF936C017C0187E0E80EF11CDD
:10193000D0E0C0E0062F10E0B8010C2E02C0759573
:1019400067950A94E2F76170F70181917F010E9427
:10195000C5022196C430D10579F7C601DF91CF9138
:101960001F910F91FF90EF90DF90CF900C94750C2A
:10197000CF92DF92EF92FF920F931F93CF93DF935B
:10198000EC01F62E642F8C810E94C5028D818F3F61
:1019900019F060E00E94C5020F2D10E08F8584FFD2
:1019A00025C06E0187E0C80ED11CF12CE12CB801D6
:1019B0000E2C02C0759567950A94E2F76170F601E6
:1019C00081916F010E94C502FFEFEF1AFF0A88E0C4
:1019D000E816F10461F7CE01DF91CF911F910F91CD
:1019E000FF90EF90DF90CF900C94750CB80184E0DD
:1019F000759567958A95E1F7CE010E948B0C6F2D46
:101A0000CE01DF91CF911F910F91FF90EF90DF906A
:101A1000CF900C948B0C40E0682F80E696E00C94FD
:101A2000B80C81E00E940B0D8BE39FE10197F1F769
:101A30000895CF93DF93823029F490916F069860D8
:101A400090936F06809373061092740680E48093DF
:101A5000750680E18093760680E58093770661E0E5
:101A6000809164060E941103809165068F3F19F0F2
:101A700061E00E94110361E0809166060E941103FB
:101A8000C0E6D6E09E012056364080916F0684FD68
:101A90000BC084E090E021962817390744F461E0F8
:101AA0008E810E941103EECF88E090E0F4CF8BE3AB
:101AB0009DE00197F1F760E0809164060E94C50205
:101AC00060E0809166060E94C502809165068F3FA6
:101AD00019F060E00E94C50280916F0684FD34C059
:101AE00063E080E696E00E948B0CCBE4D6E4CE0166
:101AF0000197F1F763E080E696E00E948B0C219756
:101B0000F1F763E080E696E00E948B0C83E592E0BB
:101B10000197F1F762E080E696E00E948B0C8091DD
:101B20006F0680620E940B0D84E0809370068CE04B
:101B30000E940B0D0E94110D82E08093710686E0D9
:101B4000DF91CF910C940B0D80620E940B0D8BE402
:101B500096E40197F1F780916F0680620E940B0D69
:101B600083E592E00197F1F780916F0680620E9411
:101B70000B0DD5CF90917306691710F06FEF690FB9
:101B8000E62FF0E0E05AF94F9489890F80680C94B1
:101B90000B0DE0E6F6E080898D7F808B88600C94E9
:101BA0000B0D41E00E94B80C81E090E00895809117
:101BB0007806882319F060E00C94C5022D980895EA
:101BC000882349F080917806882319F061E00C940D
:101BD000C5022D9A08950C94D70D4F925F926F9283
:101BE0007F928F929F92AF92BF92CF92DF92EF92AD
:101BF000FF92CF93DF93CDB7DEB72D970FB6F89452
:101C0000DEBF0FBECDBF7C010E94420369837A8391
:101C10008B839C834B015C011D86B0E0A0E09701A3
:101C2000AD0125523109410951092D833E834F836E
:101C300058879701AD01275031094109510929877A
:101C40003A874B875C87F89461E080917A060E941E
:101C5000C50280917D0690917E068230910538F014
:101C6000880F991F880F991F05970197F1F760E07A
:101C700080917A060E94C50278943D85311107C093
:101C800080917906823019F481E00E94E00D809104
:101C90007B0690917C06880E991EA11CB11CF894BD
:101CA0000E9442032B013C016B0149815A81C41AF5
:101CB000D50AF12CE12C8D819E81AF81B885C816A3
:101CC000D906EA06FB0634F080917906823011F4D9
:101CD0000E94D70D29853A854B855C85C216D306AF
:101CE000E406F506B4F078942D960FB6F894DEBFAE
:101CF0000FBECDBFDF91CF91FF90EF90DF90CF90DF
:101D0000BF90AF909F908F907F906F905F904F901B
:101D1000089531E03D87481459046A047B0408F4AF
:101D2000BFCF91CFCF92DF92EF92FF928AE190E006
:101D300090937C0680937B0685E090E090937E06EE
:101D400080937D0661E080917A060E94110380E015
:101D500093E20E94ED0D0E9442036B017C0124E09E
:101D6000C21AD108E108F1080E9442036C197D09EA
:101D70008E099F09603C784081059105A8F380E3B6
:101D800092E0FF90EF90DF90CF900C94ED0D4F928A
:101D90005F926F927F928F929F92AF92BF92CF92FB
:101DA000DF92EF92FF92CF93DF93CDB7DEB7A49788
:101DB0000FB6F894DEBF0FBECDBF4B015C016901C9
:101DC0007A0120E030E040E450E4C701B6010E940F
:101DD000773469837A838B839C8320E030E040EA08
:101DE00050E4C701B6010E9477342B013C0120E08A
:101DF00030E0A9010E94C23069877A878B879C876F
:101E0000C501B4010E94C7346D877E878F87988B88
:101E100020E030E040E850E4C701B6010E9477348A
:101E20006D837E838F839887A5019401C501B401DA
:101E30000E9415320E94C734698B7A8B8B8B9C8BE6
:101E400020E030E040E450E4C501B4010E94C2301B
:101E50000E94C7346D8B7E8B8F8B988F20E030E093
:101E600040E850E4C501B4010E94C2300E94C7346A
:101E7000698F7A8F8B8F9C8F20E030E040EA50E4AE
:101E8000C501B4010E94C2300E94C7346D8F7E8F9D
:101E90008F8F98A3A7019601C701B6010E94153242
:101EA00069A37AA38BA39CA320E030E040E85EE323
:101EB00069817A818B819C810E94C2309B01AC0137
:101EC00069A17AA18BA19CA10E94143229853A852F
:101ED0004B855C850E9415322D853E854F8558893E
:101EE0000E94C230A50194010E9415324B015C0191
:101EF000A7019601C701B6010E94C23020E030E080
:101F000040EA5FE30E94C2306B017C0120E030E0D8
:101F1000A9016D817E818F8198850E94C2309B01CD
:101F2000AC01C701B6010E94143229893A894B8954
:101F30005C890E94C2309B01AC01C501B4010E94C2
:101F400015326B017C0129853A854B855C85698159
:101F50007A818B819C810E9414322D893E894F8920
:101F6000588D0E94C2309B01AC01C701B6010E948E
:101F700015326B017C01298D3A8D4B8D5C8D6D8105
:101F80007E818F8198850E94C2309B01AC01C70180
:101F9000B6010E9415326B017C012D8D3E8D4F8D57
:101FA00058A1C301B2010E94C2309B01AC01C7011C
:101FB000B6010E9415326B017C0120E030E0A901DE
:101FC0000E945C3087FF0AC02BED3FE049EC50E4F3
:101FD000C701B6010E9415326B017C01C701B60131
:101FE000A4960FB6F894DEBF0FBECDBFDF91CF91A0
:101FF000FF90EF90DF90CF90BF90AF909F908F9029
:102000007F906F905F904F9008954F925F926F9284
:102010007F928F929F92AF92BF92CF92DF92EF9278
:10202000FF92CF93DF93EC016A017B0120E030E067
:10203000A901CB01B6010E945C3087FF04C0F7FA0A
:10204000F094F7F8F09488A099A0AAA0BBA0A701EB
:102050009601C501B4010E945C30882309F44DC08B
:102060006CA97DA98EA99FA90E9463302B013C0118
:10207000A7019601C501B4010E94D0329B01AC01B9
:10208000C301B2010E94C2300E9442336CAB7DABEF
:102090008EAB9FABA701960160E070E080E090E41A
:1020A0000E94D0320E94D53426E53EE04DE25FE347
:1020B0000E94C23020E034E244E759E40E94C2307A
:1020C00068AF79AF8AAF9BAFC8A2D9A2EAA2FBA240
:1020D000E881F9810084F185E02DCE01DF91CF9177
:1020E000FF90EF90DF90CF90BF90AF909F908F9038
:1020F0007F906F905F904F900994DF91CF91FF9008
:10210000EF90DF90CF90BF90AF909F908F907F9097
:102110006F905F904F900895CF92DF92EF92FF9271
:102120000F931F93CF93DF93EC0184E492E09983A4
:10213000888381E08F83188A198A1A8A1B8A1C8AED
:102140001D8A1E8A1F8A188E198E1A8E1B8E1C8E4F
:102150001D8E1E8E1F8E18A219A21AA21BA2C12CA0
:10216000D12C80E8E82E8FE3F82ECCA2DDA2EEA2DF
:10217000FFA21B821C821D821E8281E090E09DA72F
:102180008CA78FEF8FA718A619A61AA61BA668877B
:10219000498784E08A8785E08B871EA61CAA1DAA32
:1021A0001EAA1FAA18AE19AE1AAE1BAE1CAE1DAEEB
:1021B0001EAE1FAE8E01005C1F4FF801C082D1829F
:1021C000E282F3821A821C861D861E861F86CE013D
:1021D0000E949D07B701A601CE010E940510A7012C
:1021E00096016C8D7D8D8E8D9F8D0E945C30882335
:1021F00009F1CC8EDD8EEE8EFF8E80E094E2A4E7B6
:10220000B9E4F80180839183A283B3838CA99DA94B
:10221000AEA9BFA9181619061A061B065CF4CE0152
:10222000DF91CF911F910F91FF90EF90DF90CF90B2
:102230000C946B07DF91CF911F910F91FF90EF905E
:10224000DF90CF9008952F923F924F925F926F92BE
:102250007F928F929F92AF92BF92CF92DF92EF9236
:10226000FF920F931F93CF93DF93CDB7DEB7A49761
:102270000FB6F894DEBF0FBECDBFE091D205E111DD
:102280003EC01091CA05A090CB05B090CC0500913E
:10229000CD056091CE057091CF058091D0059091CC
:1022A000D105C12EDA2CEB2CF02EC982DA82EB821A
:1022B000FC826B017C01CD82DE82EF82F886212FC9
:1022C0003A814B815C817E818F819885A4960FB67F
:1022D000F894DEBF0FBECDBFDF91CF911F910F915C
:1022E000FF90EF90DF90CF90BF90AF909F908F9036
:1022F0007F906F905F904F903F902F90089547018F
:1023000058011A013B018C01B901330F880B990B5D
:102310000E9463306B017C0120E030E040E752E432
:10232000C501B4010E94D0329B01AC01C701B601C6
:102330000E94153220E030E040EC51E40E94D0329F
:102340004B015C018092470690924806A092490694
:10235000B0924A06B301770C880B990B0E94633048
:102360002B013C01B801012E000C880B990B0E9437
:10237000633020E030E847EB53E40E94C2306B0149
:102380007C0120E030E040E151E4C301B2010E9451
:10239000153220E030E040E451E40E94D0320E9447
:1023A0004233600F711F072E000C880B990B0E949F
:1023B000633020E030E040EE50E40E94C23020E084
:1023C00030E040E85EE30E94C2300E944233072EB4
:1023D000000C880B990B0E9463309B01AC01C70174
:1023E000B6010E9414326B017C0120E030E849E81C
:1023F00053E4C301B2010E94C23020E030E040E16A
:1024000051E40E94D0320E944233072E000C880B08
:10241000990B0E9463309B01AC01C701B6010E9479
:1024200015326B017C01B101330C880B990B0E94B2
:1024300063309B01AC01C701B6010E94153228E34D
:102440003AE542E359E40E941432A50194010E9446
:10245000153220E03CE74BE955E40E9414326B0151
:102460007C01C0924B06D0924C06E0924D06F09251
:102470004E06C0924306D0924406E0924506F09282
:1024800046062AE83BEE4CE85CE30E94C2302BEEA5
:102490003EE447E750E40E9415322BED3FE049EC63
:1024A00050E40E94D0324B015C010E944233072E5F
:1024B000000C880B990B0E9463309B01AC01C50195
:1024C000B4010E9414322BED3FE049EC50E40E942D
:1024D000C2304B015C0120E030E0A9010E945C3079
:1024E00087FF0AC02BED3FE049EC50E4C501B40181
:1024F0000E9415324B015C0180920B0690920C06F3
:10250000A0920D06B0920E0626E632EA48E85CE399
:10251000C501B4010E94C70E2B013C0140920F0679
:102520005092100660921106709212060E94CB32F1
:1025300026E632EA48E85CE30E94C23020E030E060
:1025400040E85FE30E9415329B01AC0165EC7DEE33
:102550008FE79FE30E94D0324B015C01809213060B
:1025600090921406A0921506B092160620EC3EE654
:1025700046EE5FE3C301B2010E9415322B013C011C
:102580000E94CB329B01AC01C501B4010E94C23054
:10259000698F7A8F8B8F9C8F6093170670931806C4
:1025A0008093190690931A06C301B2010E94C734A2
:1025B0009B01AC01C501B4010E94C2306D8F7E8FBA
:1025C0008F8F98A360931B0670931C0680931D0643
:1025D00090931E0610921F0610922006109221065C
:1025E000109222060091C2051091C30506501742B1
:1025F000000F111F000F111FF801E853FE4F8081DB
:102600009181A281B3818D879E87AF87B88BF801B6
:10261000E85EFD4F25E33AEF4EE85CE360817181AF
:10262000828193810E94C230A70196010E94C2302C
:102630006B017C01F801E051FE4F2D853E854F85F1
:10264000588960817181828193810E94143225E3CF
:102650003AEF4EE85CE30E94C2309B01AC01C70137
:10266000B6010E9415322BED3FE049EC50E40E9488
:10267000D0326B017C010E944233072E000C880B84
:10268000990B0E9463309B01AC01C701B6010E9407
:1026900014322BED3FE049EC50E40E94C2304B0174
:1026A0005C0120E030E0A9010E945C3087FF0AC095
:1026B0002BED3FE049EC50E4C501B4010E94153216
:1026C0004B015C018092D3059092D405A092D50570
:1026D000B092D605F801E056FE4FC080D180E2806E
:1026E000F380A7019601C501B4010E94C70E2B011A
:1026F0003C014092D7055092D8056092D90570925E
:10270000DA050E94CB3269877A878B879C87A7017D
:102710009601C701B6010E94C2309B01AC0160E086
:1027200070E080E89FE30E9414324B015C01298530
:102730003A854B855C85C701B6010E94C23020E016
:1027400030E040E85FE30E9415329B01AC01C50117
:10275000B4010E94D032F801E858FE4F2081318147
:10276000428153810E94C23069877A878B879C8718
:102770006093DB057093DC058093DD059093DE05A7
:10278000F801E05BFE4F25E33AEF4EE85CE3608141
:102790007181828193810E94C2306B017C010E9411
:1027A000CB324B015C0125E33AEF4EE85CE36D85EB
:1027B0007E858F8598890E94C230A30192010E9474
:1027C0001532A70196010E9414322B013C010E9490
:1027D000CB32698B7A8B8B8B9C8BC701B6010E94A5
:1027E000C7346D8B7E8B8F8B988FC301B2010E9493
:1027F000C7346D877E878F87988BF801E85DFE4F21
:1028000025E33AEF4EE85CE3608171818281938138
:102810000E94C23069A37AA38BA39CA30E94CB32EF
:102820002B013C0129893A894B895C89C501B40196
:102830000E94C2306B017C012D853E854F855889F1
:102840006D897E898F89988D0E94C230A301920183
:102850000E94C2309B01AC01C701B6010E94143234
:1028600029853A854B855C850E94C2306B017C01CD
:10287000C092DF05D092E005E092E105F092E2051A
:102880002D853E854F855889C501B4010E94C2300F
:10289000A30192010E94C2304B015C012D893E8947
:1028A0004F89588D69897A898B899C890E94C230A9
:1028B0009B01AC01C501B4010E94153229853A85FE
:1028C0004B855C850E94C2304B015C018092E30520
:1028D0009092E405A092E505B092E60569A17AA17F
:1028E0008BA19CA10E94C7342B013C012D853E8504
:1028F0004F85588969857A858B859C850E94C23071
:10290000A30192010E94C2302B013C014092E705D5
:102910005092E8056092E9057092EA05298D3A8D9A
:102920004B8D5C8DC701B6010E9414326B017C0196
:10293000C092EB05D092EC05E092ED05F092EE0529
:102940002D8D3E8D4F8D58A1C501B4010E941432CA
:1029500069877A878B879C876093EF057093F00572
:102960008093F1059093F2054092F3055092F4059F
:102970006092F5057092F605C092F705D092F805C1
:10298000E092F905F092FA052AE130EE4AE65FE3BB
:102990000E94C2304B015C0124E739EA4BEC5EE354
:1029A000C301B2010E94C2309B01AC01C501B40158
:1029B0000E9414324B015C018092FB059092FC0551
:1029C000A092FD05B092FE0524E739EA4BEC5EE3E8
:1029D00069857A858B859C850E94C23069877A8754
:1029E0008B879C872AE130EE4AE65FE3C301B201A0
:1029F0000E94C2309B01AC0169857A858B859C85DC
:102A00000E94153269877A878B879C876093FF05C0
:102A1000709300068093010690930206A701960129
:102A2000C501B4010E94D0320E949C322B013C01AE
:102A300020E030E0A901C701B6010E945C3087FFA9
:102A40000AC02BED3FE049E450E4C301B2010E940B
:102A500015322B013C0120E030E0A901C501B40191
:102A60000E945C3087FF13C020E030E0A901C7015D
:102A7000B6010E946A34181654F42BED3FE049EC7D
:102A800050E4C301B2010E9415322B013C01A701A1
:102A90009601C701B6010E94C2306B017C01A501FD
:102AA0009401C501B4010E94C2309B01AC01C70171
:102AB000B6010E9415320E94D5349B01AC01698594
:102AC0007A858B859C850E94D0320E949C326B0156
:102AD0007C0121EE3EE245E652E4C301B2010E94D0
:102AE000C2302B013C010E944233072E000C880BA0
:102AF000990B0E9463304B015C01AC019B01C30147
:102B0000B2010E94143220E030E040E752E40E941B
:102B1000C2300E944233072E000C880B990B0E9492
:102B200063302B013C0120E030E040E752E40E949A
:102B30006A3487FD0DC020E030E040E85FE3C50166
:102B4000B4010E9415324B015C01412C512C320121
:102B500020E030E048EC52E4C301B2010E94D032E0
:102B6000A50194010E941532162FA72EB82E092F09
:102B700021EE3EE245E652E4C701B6010E94C230B2
:102B80002B013C010E944233072E000C880B990B4D
:102B90000E9463306B017C01AC019B01C301B20157
:102BA0000E94143220E030E040E752E40E94C2303C
:102BB0000E944233072E000C880B990B0E94633051
:102BC0002B013C0120E030E040E752E40E946A34EF
:102BD00087FD0DC020E030E040E85FE3C701B601AB
:102BE0000E9415326B017C01412C512C320120E0F6
:102BF00030E048EC52E4C301B2010E94D032A70198
:102C000096010E9415324DCBCF93DF93EC01888162
:102C10009981009711F00E940637198218821D824F
:102C20001C821B821A82DF91CF910895FC01808162
:102C30009181009711F00C94063708950C94063793
:102C4000FB0101900020E9F73197AF01461B570BBC
:102C5000DC01ED91FC910280F381E02D09948F92CB
:102C60009F92AF92BF92EF92FF920F931F93CF93D9
:102C7000DF93CDB7DEB7A1970FB6F894DEBF0FBED6
:102C8000CDBF7C01FA01CB0119A2223008F42AE061
:102C90008E010F5D1F4F822E912CB12CA12CBF01F4
:102CA000A50194010E949031F901CA016A300CF526
:102CB000605DD8016E938D01232B242B252B79F792
:102CC00090E080E0109721F0BD01C7010E9420161E
:102CD000A1960FB6F894DEBF0FBECDBFDF91CF91A6
:102CE0001F910F91FF90EF90BF90AF909F908F90AA
:102CF0000895695CDECFAC01990F660B770B2AE073
:102D000087E793E00C942F16BC0180E696E00C94C4
:102D100020164F925F926F927F928F929F92AF9206
:102D2000BF92CF92DF92EF92FF92CF936B017C0123
:102D3000AC019B010E94193566E972E0811126C041
:102D400046015701E894B7F82FEF3FEF4FE75FE7F1
:102D5000C501B4010E94193581110CC02FEF3FEF5E
:102D60004FE75FE7C501B4010E945C306AE972E099
:102D7000181664F02FEF3FEF4FE75FE4C701B6018D
:102D80000E946A3418169CF46EE972E080E696E0C0
:102D9000CF91FF90EF90DF90CF90BF90AF909F903A
:102DA0008F907F906F905F904F900C9420162FEF34
:102DB0003FEF4FE75FECC701B6010E945C3087FD33
:102DC000E3CF20E030E0A901C701B6010E945C30EA
:102DD000B12CA12C87FF0AC06DE280E696E00E942C
:102DE0009A035C01F7FAF094F7F8F0942BEA35ECCB
:102DF00047EA56E3C701B6010E9415322B013C0198
:102E00000E9449336B017C010E9461309B01AC013F
:102E1000C301B2010E9414322B013C012AE0B70128
:102E2000A60180E696E00E942F167C01EA0CFB1CAE
:102E30006EE280E696E00E949A03E80EF91EC6E074
:102E4000C15029F120E030E040E251E4C301B20179
:102E50000E94C2302B013C010E9449334B01B12C2E
:102E6000A12C2AE0B501A40180E696E00E942F166D
:102E7000E80EF91EC501B4010E9461309B01AC014E
:102E8000C301B2010E9414322B013C01D9CFC7010A
:102E9000CF91FF90EF90DF90CF90BF90AF909F9039
:102EA0008F907F906F905F904F90089562EA72E0EC
:102EB0000C942016CF93DF930E949C04EC0187E7CB
:102EC00093E00E9456178C0F9D1FDF91CF910895BC
:102ED000CF93DF93FC01248135814217530788F497
:102EE000C081D181FB0160817181CE01840F951F6A
:102EF0000E945C38009729F08C1B9D0BDF91CF91CD
:102F000008958FEF9FEFFACF0F931F93CF93DF9327
:102F10008C01EB01FC01808191810097E1F06881D7
:102F2000798161157105A9F0428153812C813D8120
:102F30004217530770F00E9455388C819D81F8012B
:102F4000958384831D821C82DF91CF911F910F9105
:102F500008950E94063788819981F80191838083C2
:102F60008A819B81938382838C819D8195838483D5
:102F7000198218821B821A82E5CF0F931F93CF9379
:102F8000DF93EC0188819981009759F02A813B8178
:102F90002617370730F081E0DF91CF911F910F9115
:102FA00008958B016F5F7F4F0E948F37009759F014
:102FB000998388831B830A832C813D81232B59F7B6
:102FC000FC011082E8CF80E0E7CFEF92FF920F93F1
:102FD0001F93CF93DF936115710541F480E0DF917A
:102FE000CF911F910F91FF90EF90089541155105DA
:102FF000B1F07B01EC010C811D81040F151FB8019C
:103000000E94BD17882351F3288139818C819D81CD
:10301000B701820F931F0E9455381D830C8381E0F6
:10302000DECFEF92FF920F931F93CF93DF93EC01CC
:103030007B018A01BA010E94BD1781110BC0CE012C
:103040000E940416CE01DF91CF911F910F91FF9046
:10305000EF9008951D830C83B701888199810E94A8
:103060005538F0CFFB0101900020E9F73197AF010F
:10307000461B570B0C941118FC011182108213820D
:10308000128215821482FB0101900020E9F731972A
:10309000AF01461B570B0C941118AF92BF92CF9201
:1030A000DF92EF92FF920F931F93CF93DF936C0108
:1030B0005B017A0189012417350720F48F2D7901EE
:1030C000042F182F64EA72E0C6010E943C18D50153
:1030D0001496CD91DC91EC16FD06E0F40C171D075B
:1030E00008F4E801D501ED91FC911197EC0FFD1F5B
:1030F000108110826D917C916E0D7F1DC60161154E
:103100007105A1F00E943218F50180819181C80FEC
:10311000D91F1883C601DF91CF911F910F91FF90A6
:10312000EF90DF90CF90BF90AF9008950E9404166B
:10313000EBCF4F925F926F927F928F929F92AF925E
:10314000BF92CF92DF92EF92FF920F931F93CF9394
:10315000DF93CDB7DEB762970FB6F894DEBF0FBE30
:10316000CDBF9A8B898BFC01C7A4D0A8E1A8F2A897
:1031700083A894A8A5A8B6A820E030E040E151E4D7
:10318000C501B4010E94153220E030E040E451E472
:103190000E94D0320E9478339B01AC01C701B60176
:1031A0000E94153220E030E040EE50E40E94C23030
:1031B00020E030E040E85EE30E94C2300E947833B5
:1031C0002B013C0120E030E040E151E4C501B401B5
:1031D0000E94143220E030E040EE50E40E94D032F1
:1031E000A70196010E94153220E030E048EC52E43D
:1031F0000E94D0320E94783320E030E040E85FE364
:103200000E94153220E030E040E450E40E94C230D9
:1032100020E030E040E85EE30E94C2300E94783354
:1032200069837A838B839C8320E030E849E853E408
:10323000C501B4010E94C23020E030E040E151E419
:103240000E94D0320E9478336D837E838F8398876B
:10325000E989FA89878C90A0A1A0B2A020E030E88B
:1032600047EB53E4C701B6010E94C230A3019201AB
:103270000E94143229813A814B815C810E94143270
:103280002D813E814F8158850E941532E989FA8946
:10329000ED5BFF4F20813181428153810E941532C5
:1032A00024E236E142ED59E40E9415326B017C01C3
:1032B00020E030E040EC51E4C501B4010E94D0327E
:1032C0009B01AC01C701B6010E941532E989FA8958
:1032D000E15BFF4F608371838283938324E631EA4D
:1032E00045E15AE40E941432E989FA89E95BFF4F0B
:1032F00060837183828393832DE533E54CE75FE33D
:103300000E94C23025E83BEE48EC52E40E941532A0
:10331000E989FA8927A130A541A552A50E94153255
:103320006B017C0120E030E040E751E4C501B401CD
:103330000E94C2309B01AC01C701B6010E94153248
:103340006B017C0120E030E0A9010E945C3009891A
:103350001A89015C1F4F20E030E044EB53E487FF03
:103360000AC0C701B6010E941532F801608371835B
:10337000828393830BC0C701B6010E946A3418167A
:103380008CF1F801C082D182E282F382F80160817F
:10339000718182819381E989FA8963AF74AF85AFC6
:1033A00096AF238D348D458D568D0E9414326B015E
:1033B0007C0120E030E0A9010E945C3009891A8973
:1033C000055B1F4F20E030E044EB53E487FF13C060
:1033D000C701B6010E941532F801608371838283B0
:1033E000938315C020E030E044EB53E4C701B601FD
:1033F0000E941432BACFC701B6010E946A3418166F
:103400000CF40CC1F801C082D182E282F382F8018F
:10341000C080D180E280F380E989FA89C7AAD0AE62
:10342000E1AEF2AE2BED3FE049E450E463A574A5B4
:1034300085A596A50E94C23020E030E044E353E425
:103440000E94D0322B013C010E94C73469837A83E9
:103450008B839C832BED3FE049E450E4C701B60128
:103460000E94C23020E030E044E353E40E94D032B6
:103470004B015C010E94C7346D877E878F87988BD4
:103480002BED3FE049E450E4E989FA8963A174A196
:1034900085A196A10E94C23020E030E044E353E4CD
:1034A0000E94D0326B017C010E94C7346D837E8301
:1034B0008F839887C301B2010E94CB322B013C015C
:1034C000C501B4010E94CB3269877A878B879C87BC
:1034D000C701B6010E94CB324B015C01AC019B01DC
:1034E000C301B2010E94C23029853A854B855C85B3
:1034F0000E94C2306B017C012D813E814F81588535
:1035000069817A818B819C810E94C2309B01AC01D0
:10351000C701B6010E9415322B013C010E94813285
:103520006B017C010E94CB3269877A878B879C87ED
:10353000A30192016D817E818F8198850E94C230A6
:103540009B01AC0169817A818B819C810E9414323C
:103550002B013C0129853A854B855C85C501B40169
:103560000E94C2309B01AC01C301B2010E94D03263
:103570000E94033220E030E044E353E40E94C23072
:103580002BED3FE049E450E40E94D0324B015C0156
:1035900020E030E044E353E4C701B6010E94C230AA
:1035A0002BED3FE049E450E40E94D0326B017C01F6
:1035B00020E030E0A9016D857E858F8598890E9485
:1035C0006A34181654F4A501940160E070E084EBAD
:1035D00093E40E9414324B015C01E989FA898186E7
:1035E0009286A386B486C586D686E786F08A6296DA
:1035F0000FB6F894DEBF0FBECDBFDF91CF911F9104
:103600000F91FF90EF90DF90CF90BF90AF909F9081
:103610008F907F906F905F904F90089520E030E002
:1036200044EB53E4C701B6010E941432D5CE2F9269
:103630003F924F925F926F927F928F929F92AF9242
:10364000BF92CF92DF92EF92FF920F931F93CF938F
:10365000DF93CDB7DEB766970FB6F894DEBF0FBE27
:10366000CDBF3C012B015E8B4D8B190147010E94A0
:10367000231129873A874B875C876D877E878F87E1
:10368000988B8D859E85AF85B889898B9A8BAB8BFE
:10369000BC8BC984DA84EB84FC84B301770C880B7F
:1036A000990B0E94633060939A0470939B048093FB
:1036B0009C0490939D04B201550C880B990B0E94B9
:1036C000633060939E0470939F048093A004909352
:1036D000A104B101330C880B990B0E9463302B01BC
:1036E0003C0120E030E040E752E4C801B4010E9410
:1036F000D0329B01AC01C301B2010E94153260932C
:103700008A0470938B0480938C0490938D04AD890C
:10371000BE89BD01BB0F880B990B0E9463309B01D2
:10372000AC016091BE047091BF048091C00490917F
:10373000C1040E9415326093AE047093AF0480936D
:10374000B0049093B10444E459E662E572E4409316
:103750008E0450938F0460939004709391048DE1D4
:103760009CE1A6E4B0EC8093920490939304A09320
:103770009404B093950440936C0450936D0460934B
:103780006E0470936F048093700490937104A093FF
:103790007204B0937304C0928604D0928704E092BE
:1037A0008804F092890489899A89AB89BC898093BD
:1037B000960490939704A0939804B0939904C092B0
:1037C0007E04D0927F04E0928004F0928104809382
:1037D000820490938304A0938404B09385048BE6C1
:1037E00094E00E949918B0907804809079049090A9
:1037F0007A04A0907B04C0907404D0907504E0908B
:103800007604F090770420E030E044E353E4C7010D
:10381000B6010E946A34181674F4A701960160E09C
:1038200070E084EB93E40E9414326B017C01F7FAA0
:10383000F094F7F8F0948B2D982DA92DBA2D89834B
:103840009A83AB83BC83CD82DE82EF82F8862B2DF8
:103850003A814B815C816C2D7E818F819885669643
:103860000FB6F894DEBF0FBECDBFDF91CF911F9191
:103870000F91FF90EF90DF90CF90BF90AF909F900F
:103880008F907F906F905F904F903F902F90089512
:103890001F920F920FB60F9211242F933F938F9385
:1038A0009F93AF93BF938091690390916A03A09116
:1038B0006B03B0916C033091680323E0230F2D3725
:1038C00058F50196A11DB11D2093680380936903EB
:1038D00090936A03A0936B03B0936C0380916D0384
:1038E00090916E03A0916F03B09170030196A11D9A
:1038F000B11D80936D0390936E03A0936F03B093FB
:103900007003BF91AF919F918F913F912F910F9035
:103910000FBE0F901F90189526E8230F0296A11D49
:10392000B11DD2CF1F920F920FB60F9211242F9379
:103930003F934F935F936F937F938F939F93AF9337
:10394000BF93EF93FF9387E793E00E942D04FF91CD
:10395000EF91BF91AF919F918F917F916F915F9107
:103960004F913F912F910F900FBE0F901F90189580
:103970001F920F920FB60F9211242F938F939F9344
:10398000EF93FF93E0918703F09188038081E091AA
:103990008D03F0918E0382FD1BC090818091900376
:1039A0008F5F8F7320919103821741F0E091900314
:1039B000F0E0E958FC4F958F80939003FF91EF91D1
:1039C0009F918F912F910F900FBE0F901F90189580
:1039D0008081F4CF1F920F920FB60F9211242F9374
:1039E0003F934F935F936F937F938F939F93AF9387
:1039F000BF93CF93EF93FF93E091EE04F091EF0428
:103A0000C0818091F004C8238091F1049091F20468
:103A1000019649F08091F1049091F20401969093FF
:103A2000F2048093F1048091EC0481111DC0C11156
:103A300076C08091F1049091F204813A910578F07A
:103A40001092F5048091F1049091F2049093F8049F
:103A50008093F70481E08093F6048093EC04109245
:103A6000F2041092F1045BC08091EC04813099F46F
:103A7000CC2309F454C08091F1049091F204E091B8
:103A8000F60491E09E0F9093F604F0E0E451FB4FB2
:103A9000858782E0E2CF8091EC04823009F059C042
:103AA000C11120C0E091F604E83C70F081E0809301
:103AB000F50483E08093EC04E091F304F091F404C6
:103AC000309769F20995CBCF8091F1049091F2047F
:103AD00091E09E0F9093F604F0E0E451FB4F858750
:103AE00081E0BBCF8091F1049091F204813A91057D
:103AF000B0F08091F7049091F80490939006809331
:103B00008F068091F60480938E0683E08093EC0408
:103B1000E091F304F091F404309709F00995809155
:103B20007906813021F4C11180E00E94E00DFF91FF
:103B3000EF91CF91BF91AF919F918F917F916F91B5
:103B40005F914F913F912F910F900FBE0F901F905B
:103B500018958091EC04833011F7C111E0CF7FCF2D
:103B6000CF92DF92EF92FF920F931F93CF93DF9349
:103B7000EC016A017B0102E010E02EEF31E00E94CF
:103B80007C05892BF1F48881998185359A4AD9F48D
:103B900026E330E0B701A601CE010E947C05892B07
:103BA000A1F481E0288139812634314409F480E090
:103BB000DF91CF911F910F91FF90EF90DF90CF9009
:103BC000089583E0F5CF82E0F3CF81E0F1CFAF92AB
:103BD000BF92CF92DF92EF92FF920F931F93CF93FA
:103BE000DF9300D000D0CDB7DEB72A9A229A239A6D
:103BF000259A229A83E58CBD1DBC2A9A1AE00E9460
:103C00002B051150E1F740E050E0BA0180E40E943A
:103C10003005182F8130C1F010E0109352032A9A1A
:103C20000E942B0581E0111180E00F900F900F9002
:103C30000F90DF91CF911F910F91FF90EF90DF9048
:103C4000CF90BF90AF9008954AEA51E060E070E0F5
:103C500088E40E943005813079F5CE0101967C011F
:103C60006E0195E0C90ED11C87010E942B05F80159
:103C700081938F01CE16DF06C1F78B81813061F60B
:103C80008C818A3A49F620E1C22E27E2D22E30E911
:103C9000A32EBB24B39440E050E060E070E489EED2
:103CA0000E943005882359F1C5010197F1F7F1E031
:103CB000CF1AD10881F7B0CF40E050E0BA0189EEC9
:103CC0000E94300501E4823010F412E009EE80E138
:103CD000E82E87E2F82E90E9C92EDD24D39440E047
:103CE00050E0BA01802F0E9430058823F1F0C60110
:103CF0000197F1F7F1E0EF1AF10889F78DCF40E075
:103D000050E0BA018AE70E943005811185CF0E94F8
:103D10002B05F70181937F010E171F07C1F78981DA
:103D20001CE086FD7ACF14E078CF40E052E060E0FE
:103D300070E080E50E943005882309F46ECF6CCFD7
:103D400010927A031092790388EE93E0A0E0B0E03D
:103D500080937B0390937C03A0937D03B0937E03B9
:103D600084E692E0909378038093770385EC90E06B
:103D7000909384038093830384EC90E09093860374
:103D80008093850380EC90E0909388038093870371
:103D900081EC90E090938A038093890382EC90E019
:103DA00090938C0380938B0386EC90E090938E032A
:103DB00080938D03109290031092910310929203BE
:103DC000109293031092140428E0E5E1F4E0DF017F
:103DD000822F1D928A95E9F710921D0410921E04FD
:103DE00010921F04109220041092210410922204B9
:103DF0001092230410922404109227041092280495
:103E00001092290410922A0410922B0410922C0470
:103E100010922D0410922E0486E792E090932604CF
:103E20008093250410924B0410924C0410924D0480
:103E300010924E0410924F041092500410925104AC
:103E4000109252041092530410925404109255048C
:103E50001092560410925B0410925C0410925D0460
:103E600010925E0410925F0410926004109261043C
:103E7000109262041092630410926404109265041C
:103E800010926604109267041092680410926904FC
:103E900010926A0410923704109238041092390478
:103EA00010923A0410923B0410923C0410923D048C
:103EB00010923E0410923F0410924004109241046C
:103EC0001092420410922F04109230041092310488
:103ED000109232041092330410923404109235047C
:103EE0001092360410924304109244041092450438
:103EF000109246041092470410924804109249040C
:103F000010924A04109257041092580410925904C7
:103F100010925A041092C5041092C40442E852E070
:103F20005093C3044093C20410926B04ECE6F4E097
:103F3000DF011D922A95E9F710927404109275041E
:103F400010927604109277041092780410927904FB
:103F500010927A0410927B0410927E0410927F04D7
:103F600010928004109281041092820410928304B3
:103F7000109284041092850490937D0480937C04B5
:103F80001092A2041092A3041092A4041092A5040B
:103F90001092A6041092A7041092A8041092A904EB
:103FA0001092AA041092AB041092AC041092AD04CB
:103FB0001092B2041092B3041092B4041092B5049B
:103FC0001092B6041092B7041092B8041092B9047B
:103FD0001092BA041092BB041092BC041092BD045B
:103FE0001092BE041092BF041092C0041092C1043B
:103FF00010928E0410928F041092900410929104EB
:1040000010929204109293041092940410929504CA
:1040100010929604109297041092980410929904AA
:1040200010928604109287041092880410928904DA
:1040300010928A0410928B0410928C0410928D04BA
:1040400010929A0410929B0410929C0410929D046A
:1040500010929E0410929F041092A0041092A1044A
:104060001092AE041092AF041092B0041092B104FA
:104070008CEE94E090939206809391061092ED045A
:1040800081E08093F00489E290E09093EF048093C4
:10409000EE0450981092780610927A0610926306F9
:1040A000109262068EE892E090936106809360061B
:1040B0008AE0809364068FEF8093650689E08093A1
:1040C000660687E08093670686E08093680685E051
:1040D0008093690684E080936A0610926B061092C2
:1040E0006C0610926D0610926E0610926F0681E0BB
:1040F0000E94190D1092C7041092C6040E94E71D79
:1041000080FD31C00E94D60521E0009709F020E033
:1041100020935F06892BC9F068EE73E080E090E0A1
:104120000E9467031092C7041092C6040E94E71D04
:1041300022E030E080FD03C00E94D6059C0191E0A2
:10414000232B09F090E090935F0664EA72E089E522
:1041500096E00E943C181092C10564EA72E084EC7B
:1041600095E00C943C1882E090E0CECFCF93DF93A3
:10417000CDB7DEB7CE56D1090FB6F894DEBF0FBE6D
:10418000CDBF789484B5826084BD84B5816084BDE0
:1041900085B5826085BD85B5816085BD80916E00E5
:1041A000816080936E001092810080918100826016
:1041B0008093810080918100816080938100809153
:1041C00080008160809380008091B1008460809342
:1041D000B1008091B00081608093B00080917A003E
:1041E000846080937A0080917A00826080937A0064
:1041F00080917A00816080937A0080917A00806853
:1042000080937A001092C100E0918703F0918803B7
:1042100082E08083E0918303F09184031082E09137
:104220008503F09186038FEC808310928F03E091D9
:104230008B03F0918C0386E08083E0918903F091F9
:104240008A03808180618083E0918903F0918A03F1
:10425000808188608083E0918903F0918A03808166
:1042600080688083E0918903F0918A0380818F7D4B
:1042700080836FEB72E087E793E00E94201687E768
:1042800093E00E94561782E00E94190D80E40E947C
:104290000B0D00E211E088E2E82E81E0F82ED80153
:1042A0006D918D0180E696E00E94D10DE016F10639
:1042B000B1F788E08093ED0481E08093F00483E21D
:1042C00090E09093EF048093EE042098109278068B
:1042D00082E08093B0008093B10084E68093B300C5
:1042E0008093B4001092B2008091EC04833011F4FA
:1042F0001092EC0484E0809370001092590384E4DF
:1043000090E00E946A368C014FE06EE00E948C10B3
:10431000109372030093710320E030E04AEF53E4FE
:10432000F801648D758D868D978D0E945C30882391
:1043300001F180E090E0AAEFB3E4F801848F958F5B
:10434000A68FB78F80E090E0AAEFB4E4E05CFF4F67
:1043500080839183A283B383F80184A995A9A6A938
:10436000B7A9181619061A061B061CF4C8010E94E4
:104370006B0740E050E066E973E48091710390912F
:1043800072030E940510E0917103F0917203108A8C
:10439000118A128A138A148A158A168A178A14AA0D
:1043A00015AA16AA17AA1382148215821682108ED5
:1043B000118E128E138E84E490E00E946A368C0176
:1043C00041E160E10E948C10109374030093730329
:1043D00020E030E04AEF53E4D8015C966D917D9186
:1043E0008D919C915F970E945C30882301F180E061
:1043F00090E0AAEFB3E4F801848F958FA68FB78F72
:1044000080E090E0AAEFB4E4E05CFF4F808391830A
:10441000A283B383F80184A995A9A6A9B7A9181600
:1044200019061A061B061CF4C8010E946B0740E01F
:1044300050E066E973E480917303909174030E94E5
:104440000510E0917303F09174038FE39EE1A0E007
:10445000B0E0808B918BA28BB38B848B958BA68BDA
:10446000B78B14AA15AA16AA17AA1382148215824A
:104470001682108E118E128E138E8AE090E0909329
:104480007603809375030E94C90D809170068E7F1C
:104490008093700688600E940B0D8FEF9FEF9093C2
:1044A00067038093660360E080E00E94BA0D80910C
:1044B0005F068823A9F185EA92E00E9484164E01E6
:1044C000F1E48F0E911C9E012F5F3F4F19018091E7
:1044D000EC048330C9F180916603909167038631C3
:1044E000910511F40C94D62BF4F4409711F40C942C
:1044F000042C80917103909172030E94B009809105
:104500007303909174030E94B00980E090E0892BBE
:10451000D1F20E9419048823B1F20E940000D3CF87
:104520008CEA92E0CACF8731910511F40C94622C89
:104530004A97F9F620E030E0A90160E070E084EBF2
:1045400092E40E94990BD5CF8091F504882309F459
:1045500008C380E480938D061092800610927F0637
:1045600010928406109283061092820610928106A1
:1045700010928706109288061092890610928A0679
:1045800010928C0610928B0640918D0646FD34C029
:1045900090918E06892F8F7B843071F5E091910682
:1045A000F0919206868586588C3530F58785943053
:1045B00009F0FEC281528831F8F480898850883031
:1045C000D8F481E080938D068091950690919606AF
:1045D00090938206809381068091990690919A0625
:1045E000909384068093830680919306909194061D
:1045F0009093800680937F064091830650918406B5
:1046000070E060E02AE087E793E00E942F1687E7DA
:1046100093E00E94561780918D0686FFADC381EC12
:1046200094E00E945A1780917F069091800600972F
:10463000C1F10397B4F580918F06909190068C326A
:10464000914078F587E793E00E94561784ED93E058
:104650000E949C0420918F0630919006A2E3B0E066
:104660000E94F431AB01BC012AE087E793E00E948D
:104670002F168AE893E00E949C0488E99AE30E943E
:104680007B168CE493E00E945A178BEF92E00E9415
:104690005A1787EA92E00E945A1787E793E00E9430
:1046A00056178091830690918406823A910509F409
:1046B000F4C508F012C58931910509F4CBC508F09D
:1046C00032C48230910509F435C48836910509F465
:1046D000E7C58033910509F4E6C58831910509F4F1
:1046E000E5C58A37910509F4E4C58031910509F4DF
:1046F000E3C58833910509F4E2C58A35910509F4CB
:10470000E1C58234910509F4E0C58A34910509F4C4
:10471000DFC58235910509F08FC589E090E04AE058
:10472000B1010E94A72EF10101900020E9F7319715
:10473000AF0142195309B10189E596E00E94E517DE
:104740000E94110D0E94C90D69E576E080E696E0B1
:104750000E94A10380915D0690915E06049709F086
:104760006BC58091590690915A06009709F4B3C51C
:104770000E94772E9B017093C3056093C20581E070
:10478000673077420CF480E08093D205A7961FAE85
:10479000A797C90164EF71E00E9431366F5BA6965E
:1047A0006FAFA6972F961FAE1EAE2F9761961FAEC6
:1047B0001EAE619763961FAE1EAE63974AE0B101CD
:1047C000C9010E94A72EB101CE01835B9F4F0E94B9
:1047D0003218BE016B597F4FC1010E943C18D401B1
:1047E00011961C921E9213961C921E921297159669
:1047F0001C921E92149769817A816115710529F0C6
:104800004D815E81C4010E94111841E050E064EEC8
:1048100072E0C4010E94E517811103C0C4010E9427
:10482000041663964EAD5FAD63972F966EAD7FAD68
:104830002F97C4010E94E517811103C0C4010E9493
:10484000041644E050E066EE72E0C4010E94E517F1
:10485000811103C0C4010E940416A1961FAE1EAEB2
:10486000A197A3961FAE1EAEA397A5961FAE1EAE30
:10487000A597F401608171816115710539F044815A
:104880005581CE01815A9F4F0E941118C4010E9488
:104890001616C1010E941616CE01835B9F4F0E941F
:1048A0001616E090C604F090C704E114F10469F113
:1048B000A0963FADA097A1962FADA197D7011196D5
:1048C0001C9261969FAE8EAE6197832F922F6C01E2
:1048D000FC01208101962032D1F32F3209F46C01C2
:1048E00063961FAE1EAE6397D6018C91E0E2BE2E9A
:1048F000803208F0A0C5CE01835B9F4F0E94F80470
:104900001982892B11F40C94312EBE01615A7F4F0C
:1049100082EC94E00E94A10382EC94E00E9456177E
:104920006BEE72E082EC94E00E94201682EC94E040
:104930000E94561710E0CE01815A9F4F0E94161612
:10494000112309F40DC70E94110D0E941F0C8C0148
:104950000E944A0CA9969FAF8EAFA997209118018B
:1049600030911901AD963FAF2EAFAD974091160132
:1049700050911701AF965FAF4EAFAF97A090140163
:10498000B0901501B801110F880B990B0E9463308C
:104990007B018C01A9962EAD3FADA997AD964EAD8A
:1049A0005FADAD97AF966EAD7FADAF97C5010E947D
:1049B000231129833A834B835C836D837E838F83AA
:1049C00098874D805E806F807884C980DA80EB8024
:1049D000FC80B501BB0C880B990B0E94633060937F
:1049E0009A0470939B0480939C0490939D04AF96CB
:1049F000AEADBFADAF97BD01BB0F880B990B0E9449
:104A0000633060939E0470939F048093A0049093FE
:104A1000A104A996EEADFFADA997BF01FF0F880BCA
:104A2000990B0E94633060938A0470938B04809387
:104A30008C0490938D04AD962EAD3FADAD97B9012A
:104A4000330F880B990B0E9463309B01AC0160917E
:104A5000BE047091BF048091C0049091C1040E9473
:104A600015326093AE047093AF048093B0049093BA
:104A7000B10444E459E662E572E440938E04509335
:104A80008F0460939004709391046DE17CE186E45F
:104A900090EC6093920470939304809394049093A9
:104AA000950484E499E6A2E5B2E480936C049093C3
:104AB0006D04A0936E04B0936F042DE13CE146E4D5
:104AC00050EC20937004309371044093720450931F
:104AD0007304C0928604D0928704E0928804F09216
:104AE00089044092960450929704609298047092C0
:104AF0009904C0927E04D0927F04E0928004F092E8
:104B000081044092820450928304609284047092E3
:104B100085048BE694E00E94991860917804709166
:104B2000790480917A0490917B0420E030E0A9011F
:104B30000E946A3487FFF4C586EF92E00E948416D3
:104B400064EC75E080E696E00E94A10361E080E0FD
:104B50000E94BA0D8FEF92E00E9484168FEF9FEFB4
:104B6000F4C510928D0680917F06909180069093F7
:104B70009406809393068091830690918406B0E01A
:104B8000A0E08093990690939A06A0939B06B09319
:104B90009C068091810690918206B0E0A0E080930F
:104BA000950690939606A0939706B0939806D4CC5A
:104BB00082548F3208F020CDD0900F0120910B014C
:104BC00030910C01AD963FAF2EAFAD97209107010C
:104BD00030910801A9963FAF2EAFA9972C5E3F4FA9
:104BE00013E4E12EF12CC901B7010E941D365B01CF
:104BF00008E210E0C901B8010E941D369B012F5F39
:104C00003F4FAF963FAF2EAFAF9720910901309144
:104C10000A0124513109C901B7010E941D367B01E7
:104C2000C901B8010E941D366F5F7F4F709650E238
:104C3000412C512C3201439400E010E09801AD96D4
:104C40008EAD9FADAD97A996AEADBFADA9978A17B2
:104C50009B0709F058C0818190E08E159F0508F4EC
:104C60005FC06817790708F45BC0D1100C94642EFC
:104C70000429152926293729440C551C661C771C44
:104C8000515032965111DBCF00938706109388065E
:104C90002093890630938A06922F622F70E07093DA
:104CA000840660938306832F0E3EB7E81B0709F046
:104CB0003FC083E090E09093800680937F06832F2F
:104CC00090E0909382068093810680E290E090933A
:104CD0008C0680938B0680918F06909190068A3780
:104CE000954018F4416040938D0680918D0680FFB9
:104CF00083CC29E030E03093800620937F068062E9
:104D000080938D0679CC808190E08A159B0540F0D8
:104D1000AF96AEADBFADAF97A817B90708F0A5CF56
:104D2000DD2009F4A9CF000F111F221F331FA4CFCC
:104D3000512F5095501310C0602F70E07093820671
:104D400060938106809598130CC088E090E0909362
:104D5000800680937F06B9CF109382060093810668
:104D6000F1CF8AE090E09093800680937F063093A5
:104D7000840620938306A9CF87EB94E00E949C04CD
:104D8000E0917F06F0918006EE0FFF1FE558FB4F84
:104D9000859194910E949C0480917F069091800659
:104DA000892B81F460E287E793E00E949A03809167
:104DB0008E0690E00196969587950E947B1686E573
:104DC00094E02FCC8AE494E00E949C0440918106F8
:104DD0005091820670E060E020E187E793E00E9456
:104DE0002F168EE394E00E949C044091830650911C
:104DF000840670E060E020E187E793E00E942F16D0
:104E000080918D0684FF0FC084E394E00E949C048F
:104E1000409185065091860670E060E020E187E7CA
:104E200093E00E942F1680918D0682FF04C087E2D6
:104E300094E00E949C0480918D0683FF04C08DE164
:104E400094E00E949C0480918D06837041F160E2A1
:104E500087E793E00E949A0380918D0681FF04C04A
:104E600087E194E00E949C0480E194E00E949C040D
:104E70008AE094E00E949C0420918F063091900675
:104E8000A2E3B0E00E94F431AB01BC012AE087E765
:104E900093E00E942F1687E094E00E949C0480918A
:104EA0008D0680FF0CC08091870690918806A091A6
:104EB0008906B0918A06892B8A2B8B2B79F18AEF90
:104EC00093E00E949C04409187065091880660916F
:104ED000890670918A0620E187E793E00E942F16E9
:104EE00060E287E793E00E949A0340918B0650911D
:104EF0008C0670E060E02AE087E793E00E942F16BE
:104F000084EF93E00E949C0480918D0687FF03C08C
:104F100089EE93E086CB8EED93E083CB87E793E039
:104F20000E94561780CB8039910521F08839910570
:104F300009F0CBCB21E030E08230910541F0883997
:104F4000910511F030E020E0319521953109309341
:104F50005D0320935C030FEF1FEF803E910541F04E
:104F600051E040E08039910509F050E0052F142F01
:104F700010935B0300935A0380916603909167033B
:104F8000479709F459C18091590341E050E050938B
:104F9000760340937503882309F454C0E0917303AA
:104FA000F091740380899189A289B389A901032EA4
:104FB000000C660B770B841B950BA60BB70B808B35
:104FC000918BA28BB38B848B958BA68BB78B14AAFA
:104FD00015AA16AA17AA1382148215821682108E99
:104FE000118E128E138EE0917103F09172038091F5
:104FF000750390917603089FA001099F500D189F9B
:10500000500D1124052E000C660B770B80899189B9
:10501000A289B389841B950BA60BB70B808B918B50
:10502000A28BB38B848B958BA68BB78B14AA15AAF6
:1050300016AA17AA1382148215821682108E118E58
:10504000128E138E80917303909174036091750397
:1050500070917603269FA001279F500D369F500D1B
:105060001124052E000C660B770BDC015096CD90B9
:10507000DD90ED90FC9053974C0D5D1D6E1D7F1DD6
:105080000E947A0B809171039091720320917503B5
:1050900030917603029FA001039F500D129F500D87
:1050A0001124052E000C660B770BFC010089118979
:1050B00022893389400F511F621F731F0E947A0B90
:1050C0008FEF9FEF90936703809366030E94110D0B
:1050D00088EC92E00E948416AFC0823C910509F4EE
:1050E0008BC008F06CC0883A910509F0EECA0E94A6
:1050F000110D80916603909167038431910509F049
:1051000073C00E941F0C8C010E944A0C6C01B801F4
:10511000110F880B990B0E9463307B018C01409129
:1051200018015091190160911601709117019601B3
:1051300080911401909115010E94171B20935E032A
:1051400030935F0340936003509361036093620365
:1051500070936303809364039093650360915E038F
:1051600070915F0380916003909161030E948916A2
:1051700061E080E00E94BA0D609162037091630368
:1051800080916403909165030E94891620916203C7
:1051900030916303409164035091650360915E0315
:1051A00070915F0380916003909161030E94990B5D
:1051B00086E190E090936703809366033DC0803E54
:1051C000910509F4B7CE823E910509F07ECA10928E
:1051D00058031092570387E190E090936703809300
:1051E00066030E94110D28C0409719F48FEF9FEFBE
:1051F000E1CF80E190E0DECF20915D0630915E0648
:1052000021153105C9F02150310950E040E069E530
:1052100076E0C1010E944D18B10189E596E00E9437
:105220008417C1010E9416160E94110D69E576E0EF
:1052300080E696E00E94A10368EC70E080E090E0D8
:105240000E9467038091EC04833009F040C91092FA
:10525000EC0439C980915903882379F010925903DD
:105260000E94110D8FEC92E00E94841661E086E0AE
:105270000E94BA0D80EE92E02DCF81E08093590319
:105280000E94110D8FEC92E00E94841661E087E08D
:105290000E94BA0D8AE093E01DCF8AE190E08ACFA8
:1052A00090E080E03CCA81E090E039CA82E090E082
:1052B00036CA83E090E033CA84E090E030CA85E0EB
:1052C00090E02DCA86E090E02ACA87E090E027CAE5
:1052D00088E090E024CA60E070E0CB014BCA20E097
:1052E000E0E088E09FC4C30ED11C81E0913208F059
:1052F00080E01B968C93CE01835B9F4F0E94F80445
:10530000892B09F002CB2F962EAD3FAD2F972F7032
:10531000332775E0220F331F7A95E1F769964CAD7C
:105320005DAD6EAD7FAD699700E210E0C1010E94F6
:105330007C05892B09F0E9CA8981882309F4E5CA2B
:105340008C8583FD13C061960EAD1FAD61979101F1
:10535000D801A801455F5F4F4A175B0709F47BC47A
:10536000F90161919F019D916917B1F32F960EADDF
:105370001FAD2F970F5F1F4F09F4C7CA69968CADF9
:105380009DADAEADBFAD69970097A105B10509F41C
:10539000BCCA98012F703327232BB9F40196A11DA5
:1053A000B11D69968CAF9DAFAEAFBFAF69976596E3
:1053B0008EAD9FAD6597009769F4D70114968D91D6
:1053C0009C910817190708F0A0CA2F961FAF0EAFBF
:1053D0002F9799CFF70122812150330BA80164E068
:1053E000569547956A95E1F724233523232B69F7D2
:1053F0000E94D3068230910508F487CAD701169619
:105400002D913C918217930708F07FCA65969FAF54
:105410008EAF65970E94D70469966CAF7DAF8EAF53
:105420009FAF6997D2CF84FF70CA8B8D9C8D639696
:105430009FAF8EAF63976196AEADBFAD6197FD0133
:10544000CD010B968E179F0709F449CFB192FACF81
:10545000D70111968C91119780FF34C458968D9185
:105460009D910D90BC91A02DF701448955896689C5
:105470007789841B950BA60BB70B80349105A1058A
:10548000B10520F080E490E0A0E0B0E06C013101D3
:10549000C114D10409F473C0F70184899589A689E0
:1054A000B789AC01BD01517066277727452B462B84
:1054B000472BD1F512811150AC01BD0129E0769541
:1054C0006795579547952A95D1F71423B1F4892B01
:1054D0008A2B8B2B41F4848D958D8230910540F47D
:1054E000F7011182EFC3868D978D0E94D306F5CF09
:1054F000D7015F969C938E935E97F701868D978D6B
:105500000E94D704611571058105910521F4D70129
:1055100011961C92D7C3610F711D811D911DF7015A
:1055200060A371A382A393A3D70154962D913C91BC
:10553000317080E092E0821B930B56018C159D0523
:1055400008F45C01F70140A151A162A173A185019A
:10555000C3010E947C05892BD1F6F70184899589C6
:10556000A689B7898A0D9B1DA11DB11D848B958BC2
:10557000A68BB78B6A0C7B1CCA18DB0889CFB101DC
:10558000C4010E943C18B401CE01875A9F4F0E946B
:105590008417C4010E94161662EA72E0C4010E94D8
:1055A0003C1850E040E0B401CE01875A9F4F0E9462
:1055B00068178C01C4010E9416160F5F1F4F62EA24
:1055C00072E0C4010E943C18A801B401CE01875AC0
:1055D0009F4F0E9468177C01C4010E94161664EA5E
:1055E00072E0CE01835B9F4F0E943C188091D205F0
:1055F000811122C09701A801BE01675A7F4FC401E3
:105600000E944D18B401CE01835B9F4F0E94841706
:10561000C4010E9416162F968EAD9FAD2F9700974E
:1056200009F476C00E94732E6093CA057093CB056F
:105630008093CC059093CD05FFEFEF1AFF0A62EA45
:1056400072E0C4010E943C18A701B401CE01875A40
:105650009F4F0E9468178C01C4010E94161680910A
:10566000D205811122C09801A701BE01675A7F4F60
:10567000C4010E944D18B401CE01835B9F4F0E946C
:105680008417C4010E9416162F968EAD9FAD2F97DA
:10569000009709F441C00E94732E6093CE05709369
:1056A000CF058093D0059093D10562EA72E0C401E2
:1056B0000E943C18A8014F5F5F4FB401CE01875A8A
:1056C0009F4F0E9468177C01C4010E941616A80112
:1056D0004E5F5F4F9701BE01675A7F4FC4010E9422
:1056E0004D18B40184EC95E00E948417C4010E9417
:1056F000161681E08093C105CE01835B9F4F0E9407
:10570000161611E0CE01875A9F4F0E94161613C934
:1057100060E070E0CB0188CF60E070E0CB01BDCFEE
:1057200064EC75E080E696E00E94A10361E080E011
:105730000E94BA0D60E080E696E00E94D10D8DE0F7
:1057400093E00E94841684E190E090936703809335
:10575000660364EA72E089E596E00E9432186CCD37
:1057600084E193E00E94841661E080E00E94BA0D1B
:1057700062E273E0C1010E943C1840915D065091C5
:105780005E066091590670915A06C1010E94E517A4
:10579000811103C0C1010E940416B10180E696E0A8
:1057A0000E94A103C1010E941616D8C9E09173039B
:1057B000F091740344895589668977898089918934
:1057C000A289B389481759076A077B0711F00C941F
:1057D0007922E0917103F0917203448955896689B9
:1057E000778980899189A289B389481759076A07FF
:1057F0007B0711F00C94792280E190E0909367038D
:10580000809366030C9479220E941F0C8C010E94E5
:10581000F40BBC01990F880B990B0E94633020E0B8
:1058200030E040E752E40E94D0326B017C01B801C5
:10583000110F880B990B0E9463309B01AC01C701CB
:10584000B6010E9415326B017C010E944A0C409106
:10585000180150911901609116017091170187018B
:1058600076019C0180911401909115010E94171BF3
:1058700020935E0330935F03409360035093610372
:105880006093620370936303809364039093650352
:10589000209162033091630340916403509165034A
:1058A00060915E0370915F0380916003909161034A
:1058B0000E94990B0E94110D8AE293E00E948416C7
:1058C0000C94792200915C0310915D030115110580
:1058D00009F4F8C00E94F40B6C01E0905703F090BB
:1058E00058030E941F0C5C010E944A0C41E050E0EA
:1058F000E114F10411F050E040E0409FB001419FFD
:10590000700D509F700D11242091180130911901D4
:10591000260F371F61E070E041E0E416F10411F05A
:1059200070E060E0609FA001619F500D709F500D7E
:1059300011246091160170911701460F571FE1E085
:10594000F0E062E0E616F10411F0F0E0E0E0E09F44
:10595000B001E19F700DF09F700D1124E0911401D2
:10596000F0911501E60FF71FF0931501E093140174
:105970005093170140931601309319012093180199
:105980002FB7F8944091690350916A0360916B03BB
:1059900070916C03AB964CAF5DAF6EAF7FAFAB97C2
:1059A0002FBF21E030E053E0E516F10411F030E0C4
:1059B00020E0209FB001219F700D309F700D1124B9
:1059C000680F791F072E000C880B990B685E7F4FBC
:1059D0008F4F9F4F28E130E040E050E00E9490312F
:1059E0009B01AC0160E87EEE86E390E00E9480318E
:1059F0002B013C0181E090E064E0E616F10411F037
:105A000090E080E0809FB001819F700D909F700DAD
:105A100011246A0D7B1D072E000C880B990B645C0A
:105A20007F4F8F4F9F4F2CE330E040E050E00E94CB
:105A300090319B01AC01A0E6BAEE0E94B231460E55
:105A4000571E681E791EAB968CAD9DADAEADBFAD39
:105A5000AB97481A590A6A0A7B0A81E090E0A5E0F0
:105A6000EA16F10411F090E080E0809FB001819F80
:105A7000700D909F700D11246C0D7D1D072E000C74
:105A8000880B990B645C7F4F8F4F9F4F2CE330E066
:105A900040E050E00E9490319B01AC01A8EEB3E0E1
:105AA0000E94B231460E571E681E791E4092530363
:105AB00050925403609255037092560310925D0306
:105AC00010925C0380915A0390915B03009711F14F
:105AD0002091570330915803820F931F97FD11C0F7
